:020000040800F2
:10000000880A0020C9010008F3240008551D0008D3
:10001000F1240008150500088529000800000000EB
:10002000000000000000000000000000F1250008B2
:100030004F05000800000000F5240008F325000823
:10004000E3010008E3010008E3010008E301000800
:10005000E3010008E3010008E3010008E3010008F0
:10006000E3010008E3010008E301000819050008A6
:10007000E3010008E3010008E3010008E3010008D0
:10008000E3010008E3010008E3010008E3010008C0
:10009000E3010008E3010008E3010008E3010008B0
:1000A000E3010008E3010008E3010008E3010008A0
:1000B000E3010008E3010008E3010008E301000890
:1000C000E3010008E3010008E3010008E301000880
:1000D000E3010008E3010008E3010008E301000870
:1000E000E3010008E3010008E301000800F002F862
:1000F00000F05AF80AA090E8000C82448344AAF168
:100100000107DA4501D100F04FF8AFF2090EBAE865
:100110000F0013F0010F18BFFB1A43F0010318473B
:1001200004B2000024B200000A444FF0000C10F8A2
:10013000013B13F0070408BF10F8014B1D1108BF65
:1001400010F8015B641E05D010F8016B641E01F805
:10015000016BF9D113F0080F1EBF10F8014BAD1C55
:100160000C1B09D16D1E58BF01F801CBFAD505E073
:1001700014F8016B01F8016B6D1EF9D59142D6D3CD
:10018000704700000023002400250026103A28BFF5
:1001900078C1FBD8520728BF30C148BF0B607047F9
:1001A0001FB51FBD10B510BD00F058F81146FFF780
:1001B000F7FF02F025FD00F076F803B4FFF7F2FF39
:1001C00003BC00F07DF8000009488047094800475B
:1001D000FEE7FEE7FEE7FEE7FEE7FEE7FEE7FEE7F7
:1001E000FEE7FEE704480549054A064B7047000054
:1001F00091260008ED00000888040020880A0020ED
:1002000088060020880600204FF0000200B5134643
:1002100094469646203922BFA0E80C50A0E80C5026
:10022000B1F12001BFF4F7AF090728BFA0E80C50D7
:1002300048BF0CC05DF804EB890028BF40F8042BD0
:1002400008BF704748BF20F8022B11F0804F18BF3D
:1002500000F8012B7047704770477047754600F0F3
:100260002BF8AE4605006946534620F00700854648
:1002700018B020B5FFF7B6FFBDE820404FF00006EC
:100280004FF000074FF000084FF0000B21F007017E
:10029000AC46ACE8C009ACE8C009ACE8C009ACE8C1
:1002A000C0098D46704710B50446AFF30080204664
:1002B000BDE81040FFF781BF0048704724040020CC
:1002C00001491820ABBEFEE726000200704700007F
:1002D00070B5044600688168C943C90717D18168B1
:1002E00021F00101816000F0FBFD05460AE000BF3E
:1002F00000F0F6FD401B022804D920688068C04346
:10030000C00706D020688068C043C007F0D0002036
:1003100070BDA06A40F01000A062E06A40F00100E9
:10032000E062012070BD10B50146406A826A12F099
:10033000500F05D0006A026BBDE810400846104718
:10034000816A41F40071816201688968C1F34241A8
:1003500007290CD1017B51B9816A21F48071816236
:10036000816AC90403D4816A41F00101816200F00D
:1003700023FA10BD10B5406A816A41F040018162E4
:10038000C16A41F00401C16200F031FA10BD10B53C
:10039000406A00F02BFA10BDF8B50026044600961E
:1003A00000688168C943C9072DD0816841F0010107
:1003B0008160164816490068B0FBF1F000E0401E6D
:1003C00000900028FBD100F08BFD054616E000BF31
:1003D00000F086FD401B022810D920688068C043C9
:1003E000C0070BD0A06A40F01000A062E06A40F0A5
:1003F0000100E06284F824600120F8BD2068806874
:10040000C043C007E4D10020F8BD0000B4020020C2
:1004100040420F002DE9F04107461C4615460E46A6
:100420002A2001F0F1FEC7F3072001F0B1FEF8B277
:1004300001F0AEFEC5F3072001F0AAFEE8B201F01C
:10044000A7FE2B2001F0E0FEC6F3072001F0A0FE7E
:10045000F0B201F09DFEC4F3072001F099FEE0B276
:1004600001F096FEBDE8F0412C2001F0CDBE000069
:1004700010B5274C41071FD000F0070001281DD000
:1004800002282CD0032836D0042840D1002208218D
:10049000204600F020FD00221021204600F01BFD28
:1004A00001222021204600F016FD01222046BDE851
:1004B0001040402100F00FBD012200E00022082181
:1004C000204600F008FD00221021204600F003FD28
:1004D00000222021204600F0FEFC0022E6E7002258
:1004E0000821204600F0F7FC00221021204600F0F1
:1004F000F2FC0122EDE700220821204600F0EBFC8F
:1005000000221021204600F0E6FC0022C9E710BDC1
:1005100000080140FEE70000014800F0C5BA0000F5
:10052000F802002030B590F840500124AC40C56B73
:100530006C60046863604368102B036803D09960A3
:100540000068C26030BD9A600068C16030BD70470D
:1005500072B6FEE72DE9FF4F83B0044680B28946AC
:10056000DDF840B0009093E0802836D20D2804D00A
:10057000202806D9203880B204E009F11009009C37
:1005800028E00020DFF818A100264FF08008019035
:100590000198002506EB001728FA05F01AF8071055
:1005A000014204D009EB06016019059A07E0DDE974
:1005B0000501884205D009EB06016019069A00F092
:1005C00073F86D1CEDB2082DE6D3761CF6B2102E32
:1005D000DED308340BF1010B5AE04FF0000800BFE6
:1005E000304808EB08119BF8002010F811309342B6
:1005F00044D100EB4100019041789BF80100814219
:100600003CD100254FF0800A0198002600EB4507F9
:100610002AFA06F0B978014204D009EB0501A019C5
:10062000059A07E0DDE90501884205D009EB0501DF
:10063000A019069A00F038F8761CF6B2082EE7D317
:100640000026F9782AFA06F0014204D009EB0501E8
:10065000A019059A07E0DDE90501884206D0069A4F
:1006600009EB0501A019083000F01EF8761CF6B25F
:10067000082EE6D36D1CEDB2102DC5D308F1010094
:100680001FFA80F8B8F13C0FAAD30BF1020B10341B
:100690009BF8000000287FF467AF07B0BDE8F08F3B
:1006A000D42C0008463A000810B5144601F05BFD52
:1006B0002046BDE8104001F087BD0000F8B50024D9
:1006C000009490F824202546012A12D0012280F8B7
:1006D00024204A681F23072A0DD20668776B521E12
:1006E00002EB820293409F430B6893401F43776362
:1006F00019E00220F8BD06680D2A0AD2376BD21F16
:1007000002EB820293409F430B6893401F43376381
:1007100009E0F76A0D3A02EB820293409F430B68AF
:1007200093401F43F7620A68072306680A2A0AD320
:10073000F7680A3A02EB420293409F438B6893406A
:100740001F43F76008E0376902EB420293409F4382
:100750008B6893401F4337610A68102A01D0112A21
:1007600020D1124B02689A4217D193681B0219D408
:10077000936843F4000393600968102912D10C496F
:100780000C4A0968B1FBF2F101EB8101490000E07C
:10079000491E00910029FBD104E0816A41F020014B
:1007A0008162012480F824502046F8BD00240140D5
:1007B000B402002040420F00074910B5884209D119
:1007C00006480168064888470649074C0A682178A8
:1007D0009047608010BD0000C802002098020020F1
:1007E000B8020020A0020020A40200207047704739
:1007F0002DE9F0414FF0000704003D467ED0A06A8D
:10080000002628B9E66284F82460204600F07EF8CD
:100810002046FFF75DFDA16AC90600D420B1A06A99
:1008200040F01000A06269E0A16A21F4885141F013
:100830000201A1626268E169237B0A4347EA43013E
:100840000A43A1684FF48077B94209D0012907D043
:100850005FF0000194F814C0BCF1010F02D00AE06F
:100860003946F7E7F3B1A36A43F02003A362E36AD2
:1008700043F00103E3622368D3F804C02CF4694C0D
:100880004CEA010CC3F804C021688B68DFF870C023
:1008900003EA0C0313438B60A168B9420BD0012912
:1008A00009D00CE0DFF85CC0A3690CEB43330B43C9
:1008B00043F40061DFE7218A0D05A5F58015216865
:1008C000CB6A23F470032B43CB62216889680E4BFB
:1008D0001940914208D1E662A16A21F0020141F07B
:1008E0000101A162BDE8F081A06A20F0020040F0A1
:1008F0001000A062E06A40F00100E0620120F1E730
:10090000FDF7E1FF00E0FFFFFE0E1FFF70B586B0B0
:1009100000250646009501950295039500681A4941
:1009200088422ED11949886940F40070886188692D
:1009300000F400700490886940F0040088618869C0
:10094000694600F00400049001200090032001900B
:100950000F4800F0CBF9104C0E48C4E90005802088
:10096000C4E9025040002061800060612020C4E999
:100970000605204600F042F908B1FFF7E9FD3462B0
:10098000666206B070BD0000002401400010024005
:100990000008014008000240F80200202DE9F0475D
:1009A000894604463B4900683B4F0E1D90468842ED
:1009B00001D0B84207D1306810F4702F03D0012560
:1009C0002846BDE8F08794F8240001280CD00120C7
:1009D00084F824002046FFF7DFFC05004FF00000FC
:1009E00004D084F82400EBE70220EAE7A16A40F68D
:1009F0000162914341F48071A1622168B94218D12A
:100A0000326812F4702F14D0A16A41F48011A162EF
:100A10003168490505D5A16A21F4005141F480519E
:100A2000A162A16AC9040AD5E16A21F00601E16266
:100A300006E0A26A22F48012A2624968E9E7E06255
:100A400084F82400216A15488862216A1448C86223
:100A5000216A1448086321686FF00200086020686A
:100A6000816841F480718160216843464A464C3177
:100A7000206A00F0F1F820688168C1F3424107293B
:100A8000816803D041F48011816099E741F4A001AD
:100A9000FAE7000000240140002801402703000875
:100AA0008F030008750300082DE9F05FC16B0C6827
:100AB00001680B68D0F840C0042202FA0CF2494DDC
:100AC000DFF824A1494E4A4FDFF828B1DFF828E1CA
:100AD00022422CD05A072AD50A68920603D40A6803
:100AE00022F004020A600168A94201D1042219E03F
:100AF000514501D1402215E0B14202D14FF480624C
:100B000010E0B94202D14FF480420BE0594502D1C6
:100B10004FF4802206E0714502D14FF4800201E0DB
:100B20004FF080622F4908394A60C16A3BE04FF0BC
:100B3000020808FA0CF818EA040F4FF000094FF009
:100B4000010235D05FEA837832D50B689B0605D465
:100B50000B6823F00A030B6080F821200168A9428A
:100B600001D1022219E0514501D1202215E0B14204
:100B700002D14FF4007210E0B94202D14FF400529A
:100B80000BE0594502D14FF4003206E0714502D125
:100B90004FF4001201E04FF00072124908394A6028
:100BA00080F82090816A00291AD0BDE8F05F0847DC
:100BB000082505FA0CF5254212D01B0710D50B6845
:100BC00023F00E030B6090F84010C36B02FA01F1A2
:100BD0005960826380F8212080F82090016BE2E761
:100BE000BDE8F09F080002401C00024030000240B7
:100BF00044000240580002406C00024030B528B367
:100C000008C8134914221944B1FBF2F18900C163E9
:100C100010498163022141771A6843F6F0718A43D3
:100C2000D0E900142143D0E902452C432143046953
:100C30002143446921438469214311431960002100
:100C40004163012242770177084630BD012030BD63
:100C5000F8FFFDBF0000024070B5044690F8200088
:100C6000002501280CD0012084F8200094F8216090
:100C70000020012E06D084F820000225284670BDF1
:100C8000022070BD022684F82160A06320680668F7
:100C900026F0010606602046FFF744FCE06A0028C3
:100CA0002068016802D041F00E0106E021F0040145
:100CB00001602068016841F00A0101602068016854
:100CC00041F001010160D9E770B5044600F008F970
:100CD0000546601C02D004480078044400F000F986
:100CE000401BA042FAD370BDA80200202DE9F84FA6
:100CF000DFF8B8910024A9F1040B23460F2709F16E
:100D0000040AABF1040EC9E00125A5402A40AA421D
:100D10007DD1674ED1F804C0ACEB0608B44532D0A3
:100D200014DCBCF1030F3AD009DCBCF1000F2AD06F
:100D3000BCF1010F1CD0BCF1020F31D11DE0BCF1A0
:100D4000110F17D0BCF1120F2AD119E0B8F5881F86
:100D500019D006DCB8F5803F15D0B8F5801F1FD13B
:100D600011E0B8F5001F0ED0B8F5041F18D10AE045
:100D7000CB6815E0CB681B1D12E0CB6808330FE091
:100D8000CB680C330CE08B682BB1012B4FF00803C0
:100D900003D0456104E0042302E0056100E0002384
:100DA000FF2A01D8064601E000F104064FEA840557
:100DB00001D9A5F12005D6F8008007FA05FC28EA3C
:100DC0000C0803FA05F548EA0508C6F800804D68E6
:100DD000ED0062D5374DAE6946F00106AE61AD69F2
:100DE00024F0030605F001050095334D06EB050CD4
:100DF000DCF80850A607360F07FA06F825EA0805BA
:100E0000DFF8B880404503D14FF0000817E044E018
:100E1000DFF8AC80404502D14FF001080FE0DFF869
:100E2000A480404502D14FF0020808E0DFF8988026
:100E3000404502D14FF0030801E04FF0040808FAE2
:100E400006F848EA0508CCF808804D68D9F8006033
:100E5000ED024D4601D5164300E096432E604D68E5
:100E6000DAF80060AD02554601D5164300E096431E
:100E70002E604D68DBF80060AD035D4601D516437A
:100E800000E096432E604D68DEF80060ED03754685
:100E900001D5164300E096432E60641C0D682A4677
:100EA000E5407FF431AFBDE8F88F00000804014051
:100EB0000000111000100240000001400008014035
:100EC000000C0140001001400014014080680840FF
:100ED00000D0012070470AB1016170470904FBE7A7
:100EE0000148806870470000A8020020024881681D
:100EF0000278114481607047A8020020074810B5AD
:100F0000016841F010010160032000F075F80F2026
:100F100000F006F800F024F8002010BD0020024088
:100F200070B50D4D04464FF47A712878B1FBF0F09E
:100F30000A490968B1FBF0F000F09DFC48B9102C9B
:100F400007D200222146501E00F036F800206C60C7
:100F500070BD012070BD0000A8020020B402002076
:100F60000C4808B5816941F001018161816901F096
:100F700001010091C16941F08051C161C06900F077
:100F8000805000900448416821F0E06141F0007118
:100F9000416008BD0010024000000140002809DB4C
:100FA00000F01F02012191404009800000F1E02083
:100FB000C0F8001170470000F0B40E4B1B680C46DF
:100FC000C3F30223C3F10705042D00D90425191D1D
:100FD000072901D2002300E0DB1E012606FA05F1F5
:100FE000491E214099409E40761E16403143F0BC78
:100FF00001F0C9BC0CED00E0064900F007020868EA
:101000004FF6FF03184040EA0220034A10430860ED
:10101000704700000CED00E00000FA052DE9F843F0
:1010200005460078354CC00754D0E0690026C00062
:1010300008D4E06940F08050E061E069012600F0EA
:10104000805000902E480168C90512D4016880467E
:1010500041F480710160FFF743FF074605E000BFE0
:10106000FFF73EFFC01B642823D8D8F80000C00556
:10107000F6D5206A10F4407021D0A98801F440719F
:1010800081421CD0206A1F49012220F440700A606E
:1010900000220A602062C00711D0FFF721FF074637
:1010A00041F2883808E000BFFFF71AFFC11B414535
:1010B00002D90320BDE8F883206A8007F4D5206AAE
:1010C000696820F44070084320621EB1E06920F096
:1010D0008050E0612878800705D56068A96820F411
:1010E0004040084360602878C00605D56068E9681C
:1010F00020F48000084360600020DBE7001002401D
:1011000000700040400442422DE9F0470F460500C0
:1011100061D0434E306800F00700B84209D2306811
:1011200020F0070038433060306800F00700B84214
:1011300051D128683B4C810712D5400703D5606820
:1011400040F4E06060602878000703D5606840F4F0
:10115000605060606068A96820F0F000084360603B
:101160002878C00728D06868012810D02168022894
:1011700010D0890700292EDA616821F003010143AC
:101180006160FFF7ADFE804641F288390DE02168CD
:101190008903EFE78901EDE7FFF7A2FEA0EB080165
:1011A000494502D90320BDE8F0876068696800F00E
:1011B0000C00B0EB810FEFD1306800F00700B842AF
:1011C0000BD9306820F0070038433060306800F0F9
:1011D0000700B84201D00120E5E72878400705D58F
:1011E0006068E96820F4E0600843606028780007E0
:1011F00006D56068296920F4605040EAC10060604B
:1012000000F038F86168084AC1F30311515CC84026
:101210000649086006480068FFF782FE0020C2E722
:1012200000200240001002400AB30008B40200206F
:10123000AC0200200448054900684968044AC1F32B
:101240000221515CC8407047B402002000100240E7
:101250001AB300080448054900684968044AC1F304
:10126000C221515CC8407047B40200200010024007
:101270001AB300080E4A51680E4801F00C03042B03
:1012800011D0082B0FD10C48C1F38343C903C05CB4
:101290000AD55168084AC1F34041921E515C054A83
:1012A0005043B0FBF1F070470449484370470000D9
:1012B0000010024000127A00FAB2000800093D0056
:1012C0002DE9F84F040070D02078C04DC00749D0F8
:1012D0006868C0F38100012807D06868C0F3810006
:1012E000022809D16868C00306D52868800339D56B
:1012F00060680028E7D035E06068B0F5803F0BD02B
:1013000010B1B0F5A02F11D0286820F480302860EB
:10131000286820F4802002E0286840F480302860AB
:10132000606890B1FFF7DCFD06460AE0286840F4EB
:1013300080202860F0E700BFFFF7D2FD801B642803
:1013400073D828688003F7D50CE0FFF7C9FD06467F
:1013500005E000BFFFF7C4FD801B6428F0D82868B3
:101360008003F7D420789A4E80074FF001094FF0A0
:10137000000839D5686810F00C0F07D06868C0F312
:101380008100022809D16868C00306D42868800754
:1013900014D52069012808D110E02069B0B1C6F841
:1013A0000090FFF79DFD074605E00AE1FFF798FD75
:1013B000C01B0228C4D828688007F7D5286861694F
:1013C00020F0F80040EAC10028600DE0C6F8008077
:1013D000FFF786FD074604E0FFF782FDC01B0228E9
:1013E00023D828688007F7D4207800072CD57948BF
:1013F000A169D9B1C0F80090FFF772FD074604E07B
:10140000FFF76EFDC01B02280FD8686A8007F7D56A
:1014100071484FF4FA510068B0FBF1F0009000BF42
:101420000098411E0091FAD20EE080E0C0F80080E2
:10143000FFF756FD074604E0FFF752FDC01B0228E8
:1014400075D8686A8007F7D42078400760D5E869C6
:101450000027C00008D4E86940F08050E861E869DE
:10146000012700F0805000905C480168C90513D442
:101470000168834641F480710160FFF731FD8246C7
:1014800006E000BFFFF72CFDA0EB0A0064284ED851
:10149000DBF80000C005F5D5E06801280AD008B1E6
:1014A000052813D0286A20F001002862286A20F05D
:1014B000040002E0286A40F001002862E06841F27E
:1014C000883B98B1FFF70CFD82460BE0286A40F09C
:1014D00004002862EEE700BFFFF702FDA0EB0A015F
:1014E00059455AD8286A8007F6D50CE0FFF7F8FC72
:1014F000824605E0FFF7F4FCA0EB0A0159454CD801
:10150000286A8007F6D41FB1E86920F08050E861AE
:10151000E06988B36968C1F38101022944D00228D7
:10152000C6F8608004D0FFF7DBFC044638E034E006
:10153000FFF7D6FC074604E0FFF7D2FCC01B0228E9
:101540002BD828688001F7D4206AB0F5803F05D1F8
:101550006868A16820F4003008436860D4E9080195
:101560000843696821F4741108436860C6F8609004
:10157000FFF7B6FC044606E025E000BFFFF7B0FC2D
:10158000001B022809D828688001F7D51BE000BF9E
:10159000FFF7A6FC001B022802D90320BDE8F88F44
:1015A00028688001F4D40EE00128F7D06868226A28
:1015B00000F48031914204D1616A00F470108842D5
:1015C00001D00120EAE70020E8E700000010024017
:1015D0000000424280044242B402002000700040F9
:1015E00070B5040009D0606A002540B125616561CD
:1015F000A56294F8510040B10CE0012070BD606814
:10160000B0F5827FF4D0E561F2E784F850502046CF
:1016100000F040F8022084F851002068016821F0B1
:1016200040010160A088218900F4827001F4044126
:101630000843A18901F400610843217C01F0020103
:101640000843217D01F001010843218B01F4007161
:101650000843217F01F03801084394F8201001F07D
:1016600080010843218D01F400510843216808607E
:10167000A069042101EA1040216848602068C1691E
:1016800021F40061C1616565012084F851000020EA
:1016900070BD000030B585B0002400940194029420
:1016A000039400681549884225D11548C16941F461
:1016B0008041C161C16901F480410491816941F0B7
:1016C0000801816180690F4D00F0080004904FF41B
:1016D0002040009002200190032003906946284694
:1016E000FFF704FB4FF48040CDE90004694628462B
:1016F0000294FFF7FBFA05B030BD0000003800404F
:1017000000100240000C01402DE9F84F044690F80B
:1017100050000026984615468A4601280CD001271D
:1017200084F85070FFF7DCFB814694F85100B34613
:10173000012804D002269AE00220BDE8F88FBAF111
:10174000000F6FD0002D6DD0032084F85100C4F835
:1017500054B0C4F830A0A586E586C4F838B0A4F823
:101760003CB0A4F83EB0C4F844B0C4F840B0A0689F
:10177000B0F5004F09D12068016821F040010160F7
:101780002068016841F480410160206801684906D1
:1017900003D4016841F040010160E068B0F5006FDA
:1017A000606803D058B3012D29D049E008B1012D5C
:1017B0001FD1206B21680088C86006E0206881681E
:1017C000890709D5216B0988C160206B801C2063C3
:1017D000E08E401EE0860CE0FFF782FBA0EB0901E3
:1017E000414503D3B8F1FF3F03D006E0B8F1000F45
:1017F00003D0E08E0028E1D125E0032635E0206B00
:1018000021680078087306E02068816889070AD596
:10181000216B09780173206B401C2063E08E401E11
:10182000E0860DE01FE0FFF75BFBA0EB09014145FF
:1018300003D3B8F1FF3F03D0DFE7B8F1000FDCD0EE
:10184000E08E0028E0D14A464146204600F053FE93
:1018500008B120206065A06818B92068C168806858
:101860000090606D08B1012601E084F8517084F8A1
:1018700050B0304661E710B5401EB0F1807F01D313
:10188000012010BD4FF0E02460610F21601701F0CE
:101890007AF80020A06107202061002010BD10B55B
:1018A00090F83C20012A22D0012280F83C20CA680E
:1018B0008C6822F4407222434C6822F480622243F6
:1018C0000C6822F4006222430C6922F48052224305
:1018D0004C6922F400522243C969002322F4804259
:1018E0000A4301684A6480F83C30002010BD0220A1
:1018F00010BD000070B590F83C20012A26D00124CC
:1019000080F83C40022280F83D2003685A689D68B8
:1019100022F070060A6832435A600D4B02689A4200
:1019200008D0B2F1804F05D00A4B9A4202D00A4B40
:101930009A4204D1496825F080031943916080F8E8
:101940003D40002180F83C10084670BD022070BD6B
:10195000002C0140000400400008004010B50400C5
:1019600003D094F83D0010B107E0012010BD002025
:1019700084F83C00204600F01FF8022084F83D0067
:10198000211D206800F086FE012084F8460084F8BE
:101990003E0084F83F0084F8400084F8410084F859
:1019A000420084F8430084F8440084F8450084F839
:1019B0003D00002010BD000008B5006806498842BF
:1019C00008D10648816941F400618161806900F4B1
:1019D0000060009008BD0000002C01400010024093
:1019E00070B5044690F83C000025012817D0012668
:1019F00084F83C60022084F83D002068826822F070
:101A0000770222F47F4282600868502838D00DDCCB
:101A100020284FD005DC90B3102811D14AE00220D5
:101A200070BD302846D040280AD13BE060282FD036
:101A300070280DD0B0F5805F03D0B0F5005F12D0F4
:101A4000012584F83D60002084F83C00284670BDE4
:101A5000CB68D1E90121206800F05FFE2068816831
:101A600041F0770109E0CB68D1E90121206800F05D
:101A700054FE2068816841F480418160E1E719E00B
:101A8000CA684968206800F0FDFE5021206806E021
:101A9000CA684968206800F006FF6021206800F0ED
:101AA00046FECEE7CA684968206800F0EBFE402198
:101AB0002068F4E7226801461046F0E770B5044656
:101AC00090F83C0000260D4601280FD0012084F834
:101AD0003C006AB1042A1DD0082A2FD00C2A3FD01E
:101AE0000126002084F83C00304670BD022070BD05
:101AF000206800F025FE2068816941F008018161BD
:101B00002068816921F004018161206881692A6966
:101B1000114311E0206800F03BFE2068816941F428
:101B2000006181612068816921F4806181612068A0
:101B300081692A6941EA02218161D2E7206800F0C7
:101B400053FE2068C16941F00801C1612068C16984
:101B500021F00401C1612068C1692A69114311E0C3
:101B6000206800F06DFE2068C16941F40061C16128
:101B70002068C16921F48061C1612068C1692A6956
:101B800041EA0221C161ACE710B5040003D094F82A
:101B90003D0010B107E0012010BD002084F83C009A
:101BA000204600F01EF8022084F83D00211D206828
:101BB00000F070FD012084F8460084F83E0084F8AF
:101BC0003F0084F8400084F8410084F8420084F823
:101BD000430084F8440084F8450084F83D00002068
:101BE00010BD704710B50446022249B104290ED039
:101BF000082913D094F84100012816D0012010BD07
:101C000094F83E000128F9D184F83E200FE094F8C2
:101C10003F000128F2D184F83F2008E094F840000A
:101C20000128EBD184F8402001E084F84120012212
:101C3000206800F065FD0F492068884203D1426C9E
:101C400042F4004242642068884208D0B0F1804FDC
:101C500005D00949884202D00849884204D18168E8
:101C600001F00701062903D0016841F0010101607C
:101C7000002010BD002C014000040040000800407E
:101C800070B5040004D094F84100002510B106E0BE
:101C9000012070BD84F84050204600F023F8242035
:101CA00084F841002068C16821F40051C1602046D9
:101CB00000F00CFE2068016921F490410161206868
:101CC000416921F02A0141612068C16841F4005155
:101CD000C1606564202084F8410084F84200656397
:101CE000002070BD30B585B00024009401940294AA
:101CF000039400681449884224D11448816941F44E
:101D000080418161816901F480410491816941F0E0
:101D10000401816180690E4D00F0040004904FF4CD
:101D2000007000900220019003200390694628462D
:101D3000FEF7DCFF2815CDE9000469462846029429
:101D4000FEF7D4FF05B030BD00380140001002405E
:101D500000080140FEE7000010B50B460246FEF702
:101D600059FB03480068BDE8104000F02DBA0000A0
:101D7000140000202DE9F05F81462A481C46884661
:101D8000D0F800B0B9F1E00F4AD80846B8F5987F0E
:101D900046D8203AD6B200F10F0309F107024146B6
:101DA0004846FEF737FB204804B3DFF8788000246C
:101DB0004FF6FF794FEA000A04EB061100251AF8E6
:101DC0000170F80702D0C8F800B001E0C8F8009030
:101DD000D8F8000000F0F8F96D1C7F08EDB2082D6E
:101DE000EFD3641CE4B2102CE6D316E00E4804EBEB
:101DF00006110025475C08EB040AF80704D0514699
:101E000009EB0500FFF7A8FF6D1C7F08EDB2082D58
:101E1000F3D3641CE4B2102CE8D30249C1F800B03B
:101E2000BDE8F09F14000020883C00082DE9F04731
:101E300000261D46904689460746344621E0281B69
:101E4000401EC1B20A2000F033FFB8FBF0F00A21B7
:101E5000B0FBF1F201FB120026B9691E8C4201DAD7
:101E600030B101263030C2B207EBC400012303E0D9
:101E7000012307EBC40020224946FFF77BFF641CC7
:101E8000E4B2AC42DBD3BDE8F08700002DE9F047B7
:101E90000546002140F23F13EF22084600F046F9C4
:101EA000DFF844804FF4006900224946444640462A
:101EB000FFF711F8012291022046FFF70CF80024E9
:101EC000C5F307264FF49637304600F08BFBE8B297
:101ED00000F088FB641CBC42F6D349464046BDE88E
:101EE000F0470122FEF7F7BF000C014010B500F0EB
:101EF00005F9112000F088F9002000F049F9CF2001
:101F000000F082F9002000F043F9C12000F040F910
:101F1000302000F03DF9ED2000F076F9642000F06B
:101F200037F9032000F034F9122000F031F9812054
:101F300000F02EF9E82000F067F9852000F028F97C
:101F4000112000F025F9782000F022F9F62000F0A9
:101F50005BF9012000F01CF9302000F019F9002095
:101F600000F016F9CB2000F04FF9392000F010F9FD
:101F70002C2000F00DF9002000F00AF9342000F0C8
:101F800007F9052000F004F9F72000F03DF92020C2
:101F900000F0FEF8EA2000F037F9002000F0F8F831
:101FA000002000F0F5F8C02000F02EF9202000F00D
:101FB000EFF8C12000F028F9112000F0E9F8C52061
:101FC00000F022F9312000F0E3F83C2000F0E0F8C6
:101FD000C72000F019F9A92000F0DAF83A2000F043
:101FE00013F9552000F0D4F8362000F00DF9482000
:101FF00000F0CEF8B12000F007F9002000F0C8F89A
:10200000182000F0C5F8B42000F0FEF8002000F021
:10201000BFF8002000F0BCF8F22000F0F5F8002036
:1020200000F0B6F8262000F0EFF8012000F0B0F83C
:10203000E02000F0E9F80F2000F0AAF8172000F0E7
:10204000A7F8142000F0A4F8092000F0A1F80C2053
:1020500000F09EF8062000F09BF8432000F098F86E
:10206000752000F095F8362000F092F8082000F076
:102070008FF8132000F08CF8052000F089F810206C
:1020800000F086F80B2000F083F8082000F080F8BC
:10209000E12000F0B9F8002000F07AF81F2000F0ED
:1020A00077F8232000F074F8032000F071F80E2078
:1020B00000F06EF8042000F06BF8392000F068F8AA
:1020C000252000F065F84D2000F062F8062000F0B1
:1020D0005FF80D2000F05CF80B2000F059F8332079
:1020E00000F056F8372000F053F80F2000F050F8B9
:1020F000BDE81040292000F087B8000070B50A4DF7
:102100004FF48054002221462846FEF7E4FE642066
:10211000FEF7DAFD012221462846FEF7DCFEBDE887
:1021200070403220FEF7D0BD000C01402DE9F04197
:1021300004461D4616460F462A2000F065F8204644
:1021400000F042F8304600F03FF82B2000F05CF839
:10215000384600F039F8284600F036F8BDE8F0417E
:102160002C2000F051B870B504460D462A2000F02E
:102170004BF8204600F028F82B2000F045F82846C0
:1021800000F022F8BDE870402C2000F03DB80000BF
:1021900070B50C4D06464FF40064002221462846D7
:1021A000FEF799FE012291022846FEF794FE304682
:1021B00000F018FA21462846BDE870400122FEF7DB
:1021C0008ABE0000000C014070B50E4E04464FF46C
:1021D0000065002229463046FEF77DFE012291026D
:1021E0003046FEF778FEC4F30720FFF7D1FFE0B2D8
:1021F000FFF7CEFF29463046BDE870400122FEF7CA
:102200006ABE0000000C014070B50C4D06464FF44C
:102210000064002221462846FEF75DFE0022611080
:102220002846FEF758FE304600F0DCF921462846E5
:10223000BDE870400122FEF74EBE0000000C0140D8
:102240003EB500240F480094019402940C49846028
:10225000016004730475C461012505614460FEF7E3
:10226000C7FA08B1FEF774F9CDE90045694605489B
:102270000294FEF723FA002801D0FEF769F93EBD6B
:1022800000240140C8020020094808B5416941F016
:10229000010141614069002200F0010000901146F7
:1022A0000B20FEF789FEBDE808400B20FEF776BE46
:1022B000001002402DE9F04786B000243648009413
:1022C000019402940394816941F010018161816954
:1022D00001F010010491816941F02001816181695F
:1022E00001F020010491816941F00401816181695B
:1022F00001F004010491816941F008018161806964
:10230000DFF8988000F008004FF400550490002298
:1023100029464046FEF7DFFDDFF884900022782151
:102320004846FEF7D8FDDFF87CA04FF4E0570022C6
:1023300039465046FEF7CFFD00950226012503964B
:10234000CDE9015469464046FEF7D0FC7820CDE93E
:102350000005CDE9024669464846FEF7C7FC4FF442
:102360000860CDE90004694648460294FEF7BEFCC9
:102370000320CDE90004694650460294FEF7B6FCFE
:1023800000970396CDE9015469465046FEF7AEFC2E
:1023900006B0BDE8F08700000010024000100140C8
:1023A00000080140000C0140104810B50E490160C2
:1023B0004FF48271416000218160C1604FF400726E
:1023C0000161C0E905120822C0E90721416281626A
:1023D0000A21C162FFF704F9002803D0BDE81040CC
:1023E000FEF7B6B810BD0000003800403C030020E6
:1023F00010B596B000240F94109411941294139475
:102400001C2108A81494FDF7FFFE20216846FDF763
:10241000FBFE2848264901604821C0E901146421D7
:10242000C0E9031444618461FFF798FA08B1FEF72C
:102430008FF84FF480500F900FA91E48FFF7D0FA85
:1024400008B1FEF785F81B48FFF79EFB08B1FEF7C1
:102450007FF8402013908020149013A91548FFF7AF
:1024600049FA08B1FEF774F8602008903220CDE9EF
:1024700009040B940C940D94002208A90D480E94A5
:10248000FFF71CFB08B1FEF763F800944FF400500F
:10249000CDE90440029401940394694605480794E9
:1024A000FFF7FDF9002801D0FEF752F816B010BD75
:1024B000002C0140940300200C4810B50A4901602B
:1024C0004FF4E1314160002181600C22C160C0E91C
:1024D00004128161C161FFF7D3FB002803D0BDE87E
:1024E0001040FEF735B810BD00380140DC03002075
:1024F000FEE7FEE7704738B50B460092044600221F
:10250000802100F009F8002804D0606D40F0200020
:102510006065032038BD00002DE9F8431E46914652
:1025200088460446089DFEF7DBFC401B351AFEF783
:10253000D7FC074625480068C0F3CB30684338E035
:10254000701C37D0FEF7CCFCC01BA84203D215B1DB
:10255000009860B32CE02068416821F0E001416000
:102560006068B0F5827F0BD1A068B0F5004F02D053
:10257000B0F5806F04D12068016821F0400101604E
:10258000A06AB0F5005F09D12068016821F400510C
:1025900001602068016841F400510160012084F865
:1025A0005100002084F850000320BDE8F883002586
:1025B000401E00902068816838EA010004D00021A4
:1025C0004945BDD10020F0E70121F9E7B402002020
:1025D0000A4601464FF47A730148FFF795B80000A8
:1025E0003C03002001B501216846FFF7F1FF08BD5B
:1025F0007047FEF77BBC000070B5064C054661686D
:102600008847A168284688472846E168BDE87040A9
:10261000084700000400002030B593B02821684628
:10262000FDF7F2FD14210AA8FDF7EEFD00250120BB
:102630000F9510951195010412958DE823000490D3
:102640004FF4E010CDE90810022407946846FEF725
:1026500037FE08B172B6FEE70AA90F2081E8310003
:102660004FF48060CDE90D0502210AA8FEF74CFD6C
:1026700008B172B6FEE74FF4004011900F940FA816
:10268000FEF7CCFC002801D072B6FEE713B030BDD7
:1026900070470000F0B50268164B174C174D4FF00D
:1026A0008047984205D0B84203D0A04201D0A8424A
:1026B00003D122F070064A683243984205D0B842EE
:1026C00003D0A04201D0A84203D122F44074CA68CA
:1026D00022434C6922F08002224302608A68C2626F
:1026E0000A688262984201D109690163012141614E
:1026F000F0BD0000002C0140000400400008004034
:1027000010B501F01F030121046A99408C43046253
:10271000016A9A401143016210BD10B5846842EA13
:10272000032224F47F440A432243826010BD82685E
:1027300022F070020A4342F00701816070470000F6
:1027400030B5036A026A22F00102026242688469BB
:1027500024F073050C682C4323F002058B682B438F
:102760000A4DA8420BD123F00805CB6822F4407231
:102770002B434D6923F0040315438A692A434260C1
:10278000846149684163036230BD0000002C014050
:1027900030B5026A036A23F0100303624368846958
:1027A0000D6824F4E64444EA05248D6822F02002F2
:1027B00042EA05120B4DA8420ED1CD6822F08002EC
:1027C00042EA05124D6923F4406343EA85038D69AB
:1027D00022F0400243EA85034360846149688163D3
:1027E000026230BD002C014030B5036A026A22F457
:1027F000807202624268C46923F4007324F0730596
:102800000C682C438D6843EA05230C4DA8420ED179
:10281000CD6823F4006343EA05234D6922F4405256
:1028200042EA05128D6923F4806342EA0512426090
:10283000C4614968C163036230BD0000002C0140DF
:1028400030B5046A026A22F4805202624268C369A7
:102850000D6823F4E64343EA05238D6824F400540D
:1028600044EA0534064DA84204D14D6922F4804261
:1028700042EA85124260C36149680164046230BD66
:10288000002C014010B5036A046A24F001040462BC
:10289000846924F0F00444EA021423F00A020A4393
:1028A0008461026210BD10B5036A046A24F010044A
:1028B0000462846923F0A00324F4704444EA0232E1
:1028C00043EA01118261016210BD000070B5044647
:1028D00000680169E26821F44051114301612169F6
:1028E000A0680843616908432168CA6841F20C6323
:1028F0009A430243CA6020684169A26921F4407189
:10290000114341611E492068884202D1FEF7A2FCB2
:1029100001E0FEF78FFC00EBC00101EB00126068E4
:1029200064218000B2FBF0F3B3FBF1F36FF0180603
:102930007343B2FBF0F5B2FBF0F605EB83053223EF
:1029400003EB0515B5FBF1F5B6FBF1F605F0F00567
:1029500005EB0615B2FBF0F6B2FBF0F0B0FBF1F0C0
:102960006FF01802504306EB800003EB0010B0FB41
:10297000F1F0216800F00F002844886070BD00006D
:1029800000380140FEE70907090E002804DB00F1CA
:10299000E02080F80014704700F00F0000F1E02004
:1029A00080F8141D704700002DE9F04105460078BD
:1029B0000024000618D50D4F0D4E3088C8280ED2C1
:1029C000042C0CD001D94FF0040404F10104E4B24A
:1029D000396820468847C820FEF776F9EDE7287861
:1029E00000F0F80020432870BDE8F0819C02002030
:1029F000A602002070B504460078204E00F00705BE
:102A000000061CD480213046FEF760FA012816D15A
:102A10001420FEF759F980213046FEF757FA0128B5
:102A20000DD10DB16D1EEDB2207800F0F8002843F5
:102A3000207080213046FEF749FA0128F9D04FF482
:102A4000006529463046FEF741FA012815D11420C9
:102A5000FEF73AF929463046FEF738FA01280CD13C
:102A60002078000601D5002000E080202070294653
:102A70003046FEF72BFA0128F9D070BD000801405E
:102A8000F8B54A4F04463878217800F0070001F085
:102A90000701884203D04FF6FF70FFF7F7F944A013
:102AA0004FF478454FF4FC6600902B4632460021E7
:102AB0003220FDF74FFD41A000902B463246B42155
:102AC0001E20FDF747FD3F480423B4210288502013
:102AD000FFF7ACF92078400707D13BA000902B46C8
:102AE00032465A211E20FDF735FD39A000902B46B5
:102AF0003246B4217820FDF72DFD207800F0070044
:102B0000012807D133A000902B4632465A211E20BF
:102B1000FDF720FD2EA000902B463246B4217820F0
:102B2000FDF718FD207800F00700022807D12BA040
:102B300000902B4632465A211E20FDF70BFD2AA09D
:102B400000902B463246B4217820FDF703FD207813
:102B500000F00700032807D124A000902B4632463E
:102B60005A211E20FDF7F6FC1FA000902B4632468E
:102B7000B4217820FDF7EEFC207800F0070004284F
:102B800007D11DA000902B4632465A211E20FDF78A
:102B9000E1FC15A000902B463246B4217820FDF7C9
:102BA000D9FC207800F007003870F8BD0000002044
:102BB000B5E7D1B9B2E2C1BF00000000B5E7D1B9B5
:102BC00000000000A6020020C1BFB3CC3230560086
:102BD00056000000C1BFB3CC32560000C1BFB3CC19
:102BE0003230306D560000006D560000C1BFB3CCCE
:102BF00032306D5600000000C1BFB3CC326D5600BC
:102C0000FEF77CF9FFF708FD6420FEF75DF8FFF79B
:102C100051FBFFF739FBFFF713FBFFF7E9FBFFF76A
:102C20004BFCFFF7C1FB07220E490F48FDF7B6FE2C
:102C300000210E48FEF7D6FFFFF758F90C4C012291
:102C400051022046FEF747F9012211032046FEF704
:102C500042F94FF6FF70FFF719F9064C0648216854
:102C60008847FBE7B8020020C80200209403002038
:102C7000000C014004000020A402002070B50022D6
:102C80000021C2F106040BE000EB410530F81130E1
:102C90006E88B34202D920F811606B80491CC9B21A
:102CA0008C42F1DC521CD2B2062AE9D3C08870BD36
:102CB0000246012000E05043491EC9B2FBD27047D2
:102CC000034948434FF4C82190FBF1F080B27047AC
:102CD00010090500000000000000000000000000D6
:102CE0000000000000101010101010101010000054
:102CF0001010000000006C6C242400000000010093
:102D0000000000000024242424FE48484848FC9089
:102D10009090900000103C549290503814121292EF
:102D2000547810000000225C94A8481010242A5205
:102D300054880000000030484850206E54948C881D
:102D40008A74000000003030101000000000000005
:102D50000000000000040810102020202020201077
:102D600010080400008040202010101010101020C7
:102D7000204080000000000010543810385410002B
:102D80000000000000000010101010FE10101010C5
:102D90000000000000000000000000000000000033
:102DA0001010200000000000000000FE00000000E5
:102DB0000000000000000000000000000000000013
:102DC00010100000000004040808101020204040EB
:102DD0008080000000003844828282828282828267
:102DE0004438000000001070101010101010101067
:102DF000107C0000000038448282040810204082C9
:102E000084FC00000000384482020438040202827C
:102E1000443800000000040C141424244444FE042C
:102E2000040E00000000FC808080B8C48202028290
:102E30008478000000003C428280B8C48282828292
:102E40004438000000007E42820404080808101084
:102E5000101000000000384482824438448282828C
:102E6000443800000000384482828282463A02825E
:102E70004438000000000000101000000000101096
:102E80000000000000000000101000000000001012
:102E90001020000000000000061860806018060086
:102EA00000000000000000000000FE0000FE000026
:102EB0000000000000000000C0300C020C30C00018
:102EC0000000000000384482820204081010100044
:102ED0001010000000003844829AAAAAAAAAAA9652
:102EE00080423C00000010101028282844447C44F4
:102EF00044EE00000000FC424242427C4242424218
:102F000042FC000000003C448280808080808282FD
:102F1000443800000000F8444242424242424242E9
:102F200044F800000000FC444240447C44404042DD
:102F300044FC00000000FC444240447C44404040CB
:102F400040F000000000344C828080808E848484B5
:102F50004C3400000000EE444444447C4444444467
:102F600044EE000000007C10101010101010101023
:102F7000107C000000003E080808080808080888BF
:102F8000887000000000EE444848506050484844B3
:102F900044EE00000000E0404040404040404042DD
:102FA00044FC00000000C6446C6C6C54545444440F
:102FB00044EE00000000CE4464646454544C4C4C15
:102FC00044E400000000384482828282828282824D
:102FD000443800000000F8444242424478404040F7
:102FE00040E000000000384482828282828282BAFD
:102FF000443C02000000F0484444444870484444C3
:1030000044E6000000003C44828040300C02028212
:103010004478000000007C54921010101010101022
:10302000103800000000EE44444444444444444406
:10303000443800000000EE44444444282828281066
:10304000101000000000EE445454545454542828E6
:10305000282800000000EE444428281010282844A6
:1030600044EE00000000EE44442828281010101000
:103070001038000000007E448408081020204082A0
:1030800084FC0000001C1010101010101010101004
:1030900010101C000000EE445454FE5454542828D0
:1030A00028280000007010101010101010101010C0
:1030B0001010700000304884000000000000000084
:1030C0000000000000000000000000000000000000
:1030D0000000FE0000402000000000000000000092
:1030E000000000000000000000007884047C84845C
:1030F0008C7600000000C04040405864424242428A
:103100006458000000000000000038448080808087
:103110004438000000000C040404344C848484848B
:103120004C360000000000000000788484FC8080A1
:1031300084780000000018242020F820202020207F
:10314000207000000000000000003A444478807CB9
:1031500082827C000000C0404040586444444444A3
:1031600044EE00000000101000003010101010108D
:103170001038000000001010000030101010101067
:10318000109060000000C04040405C4850605048D3
:1031900044EE00000000301010101011101010103C
:1031A00010390000000000000000ACD29292929210
:1031B00092D6000000000000000058E4444444445B
:1031C00044EE000000000000000038448282828249
:1031D00044380000000000000000D864424242640D
:1031E0005840E000000000000000364C8484844C0D
:1031F00034040E000000000000006C30202020206D
:1032000020700000000000000000788884601884AE
:1032100044780000000000202020F82020202020FA
:1032200024180000000000000000C6424242424252
:10323000463A0000000000000000EE444428282820
:1032400010100000000000000000EE444454542818
:1032500028280000000000000000EE44281010287C
:1032600044EE0000000000000000EE444428281056
:1032700010A0C0000000000000007E448810204222
:1032800084FC0000000C10101010106010101010C2
:1032900010100C0000101010101010101010101052
:1032A0001010100000C020202020201820202020F6
:1032B0002020C00000000000000000728C00000010
:1032C000000000000000000000001FE000003FF0D0
:1032D00000003FF000001FE0000180060003C00F67
:1032E0000003C00F0003C00F0003C00F0003C00F96
:1032F0000003C00F0003C00F0003C00F0003000352
:1033000000000000000000000000000000030003B7
:103310000003C00F0003C00F0003C00F0003C00F65
:103320000003C00F0003C00F0003C00F0003C00F55
:103330000001800600001FE000003FF000003FF0A9
:1033400000001FE0000000000000000000000080FE
:10335000000001800000038000000780000007805B
:103360000000078000000780000007800000078041
:103370000000078000000780000007800000018037
:1033800000000000000000000000000000000180BC
:103390000000078000000780000007800000078011
:1033A0000000078000000780000007800000078001
:1033B0000000078000000380000001800000008002
:1033C000000000000000000000001FE000003FF0CF
:1033D0000000FFF00001FFE0000000060000000F09
:1033E0000000000F0000000F0000000F0000000FA1
:1033F0000000000F0000000F0000000F00001FE39E
:1034000000007FF800007FF800001FE000030000CC
:103410000003C0000003C0000003C0000003C000A0
:103420000003C0000003C0000003C0000003C00090
:103430000001800000001FF000003FF800003FFC8A
:1034400000001FFE000000000003FF800001FFC01D
:103450000000FFC000007F80000000180000003C5A
:103460000000003C0000003C0000003C0000003C6C
:103470000000003C0000003C0000003C00007F8C8D
:103480000001FFE00001FFF000007F800000000C61
:103490000000003C0000003C0000003C0000003C3C
:1034A0000000003C0000003C0000003C0000003C2C
:1034B0000000001800007F800000FFC00001FFC076
:1034C0000003FF8000000000000000000002000177
:1034D00000030003000380070003C00F0003C00FB8
:1034E0000003C00F0003C00F0003C00F0003C00F94
:1034F0000003C00F0003C00F0003C00F00031FE351
:1035000000007FF800007FFC00001FE000000003C7
:103510000000000F0000000F0000000F0000000F6F
:103520000000000F0000000F0000000F0000000F5F
:103530000000000F00000007000000030000000171
:10354000000000000000000000001FFC00003FF829
:1035500000003FF000001FE0000180000003C000F9
:103560000003C0000003C0000003C0000003C0004F
:103570000003C0000003C0000003C00000031FE000
:1035800000007FF800007FF800001FE0000000034B
:103590000000000F0000000F0000000F0000000FEF
:1035A0000000000F0000000F0000000F0000000FDF
:1035B0000000000600003FE000007FF00000FFF088
:1035C0000001FFE00000000000001FFC00003FF8C9
:1035D00000003FF000001FE0000180000003C00079
:1035E0000003C0000003C0000003C0000003C000CF
:1035F0000003C0000003C0000003C00000031FE080
:1036000000007FF800007FFC00001FE000030003C3
:103610000003C00F0003C00F0003C00F0003C00F62
:103620000003C00F0003C00F0003C00F0003C00F52
:103630000001800600001FE000003FF000003FF0A6
:1036400000001FE0000000000007FFE00003FFC0D3
:103650000001FF880000FF1800000038000000781B
:10366000000000780000007800000078000000787A
:1036700000000078000000780000007800000018CA
:103680000000000000000000000000000000001822
:10369000000000780000007800000078000000784A
:1036A000000000780000007800000078000000783A
:1036B000000000780000003800000018000000083A
:1036C000000000000000000000001FE000003FF0CC
:1036D00000003FF000001FE0000180060003C00F63
:1036E0000003C00F0003C00F0003C00F0003C00F92
:1036F0000003C00F0003C00F0003C00F00031FE34F
:1037000000007FF800007FFC00001FE000030003C2
:103710000003C00F0003C00F0003C00F0003C00F61
:103720000003C00F0003C00F0003C00F0003C00F51
:103730000001800600001FE000003FF000003FF0A5
:1037400000001FE00000000000001FE000003FF04C
:1037500000003FF000001FE0000180060003C00FE2
:103760000003C00F0003C00F0003C00F0003C00F11
:103770000003C00F0003C00F0003C00F00031FE3CE
:1037800000007FF800007FFC00001FE00000000345
:103790000000000F0000000F0000000F0000000FED
:1037A0000000000F0000000F0000000F0000000FDD
:1037B0000000000600001FE000003FF000007FF066
:1037C0000000FFE00000000000000000000000001A
:1037D00000000000000000000000000000000000E9
:1037E00000000000000000000000000000000000D9
:1037F00000000000000000000000000000000000C9
:1038000000000000000000000000000000000000B8
:1038100000000000000000000000780000007800B8
:1038200000007800000078000000780000007800B8
:103830000000000000000000000000000000000088
:103840000000000000000000000000000000000078
:103850000000000000000000000000000000000068
:10386000000000000000070000000F8000000F8033
:1038700000000F80000007000000000000000000B2
:103880000000000000000000000000000000000038
:103890000000070000000F8000000F8000000F8074
:1038A0000000070000000000000000000000000011
:1038B0000000000000000000000000000000000008
:1038C00000000000000000000000000000000000F8
:1038D000000000000007C006000FE0060000000C1A
:1038E0000030181800301818003018300030183028
:1038F00000301860003008C00007C0C0000FE08032
:10390000000000000000000FE0000607C0000630C5
:1039100018000C3018000C30180018301800303027
:1039200018003030180060000000C00FE000C00731
:10393000C0000000000000000000000000000000C7
:103940000000000000000000000000000000000077
:10395000000000000000000000000000000700E080
:10396000000887FC00088E030008980180071800F3
:103970008000300000003000000070000000600097
:1039800000006000000060000000600000006000B7
:10399000000070000000300000003000000038001F
:1039A0000000180100000C03000007FC000001F0FB
:1039B0000000000000000000000000000000000007
:1039C00000000000000000000000000000000000F7
:1039D00000000000000000000000000000000000E7
:1039E00000000000000000000000000000000000D7
:1039F00000000000000000000000000000000000C7
:103A000000003FF000007FF000007FE00000FFC0FA
:103A100000000000000000000000000000000000A6
:103A20000000000000000000000000000000000096
:103A30000000000000000000000000000000000086
:103A4000000000000000BBEC000027FC140414047C
:103A500087FC4404440417FC10002420E42227AC13
:103A60002430242225A2061EB7D60040044004209C
:103A700008201010200840049FE2042004200420A5
:103A800008200820102021404080BEDE00003FF8C2
:103A90002000200020003FF02010201020103FF0D8
:103AA00020002000200020003FFC0000CADE08208B
:103AB00004403FF821083FF821083FF80000FFFECE
:103AC00000001FF01010101010101FF01010C1FA9D
:103AD0000420041004100400FFFE048004880488FD
:103AE000049008A008C0108211822282447E8000C7
:103AF000C4B308200820FFFE082008200FE008209B
:103B000008200FE00100FFFE054009203118C10622
:103B100001000000000000000000000000000000A4
:103B20000000000000000000000000000000000095
:103B300000000000B5E70100010001003FF8210886
:103B4000210821083FF82108210821083FF8210A0F
:103B50000102010200FED1B900003FFE20002080DA
:103B60002080208020802FFC2080208020902088B2
:103B7000208840805FFE8000B2E2000427C4144425
:103B80001454855445544554155415542554E5543E
:103B900021042284224424140808C1BF00001FF01D
:103BA00010101FF01010FFFE00001FF011101FF08A
:103BB00011101FF001001FF001007FFCB3CC0800C2
:103BC0001DFCF10411041104FDFC1000300039FE4D
:103BD0005420542091FC1020102013FE1000CAC75E
:103BE0001FF0101010101FF0101010101FF0000028
:103BF000FFFE0100110011F811002900450083FEAD
:103C0000B7F100007FFC0080010003000560091887
:103C10003104C10200001FF01010101010101FF02E
:103C20001010B9FD00102010101017FE0010001029
:103C3000F210111011101010101010501020280048
:103C400047FE0000D4D8082008287F240820FFFE63
:103C500010201024FF24202448287F2808100F1249
:103C6000F82A08460882000000000000000000005A
:103C70000000000000000000000000000000000044
:103C80000000000000000000000000000000000034
:103C900000000000000000000000000808080808FC
:103CA000080800001818000000486C2412000000EA
:103CB00000000000000000000000002424247F1207
:103CC00012127F12121200000000081C2A2A0A0C8D
:103CD0001828282A2A1C0808000000222515151576
:103CE0002A585454542200000000000C1212120AE8
:103CF00076252911916E00000006060403000000DD
:103D0000000000000000000000402010100808081B
:103D100008080810102040000002040808101010C5
:103D200010101008080402000000000008086B1CB6
:103D30001C6B0808000000000000000008080808CC
:103D40007F080808080000000000000000000000D4
:103D50000000000006060403000000000000000050
:103D6000FE00000000000000000000000000000055
:103D700000000000060600000000804040202010E7
:103D80001008080404020200000000182442424205
:103D90004242424224180000000000080E080808B1
:103DA00008080808083E00000000003C424242208B
:103DB00020100804427E00000000003C424220180F
:103DC00020404042221C0000000000203028242413
:103DD00022227E20207800000000007E0202021ACB
:103DE00026404042221C0000000000382402021A33
:103DF00026424242241800000000007E22221010B9
:103E000008080808080800000000003C424242245C
:103E100018244242423C0000000000182442424262
:103E200064584040241C00000000000000001818E6
:103E3000000000001818000000000000000000084A
:103E400000000000000808040000004020100804E2
:103E500002040810204000000000000000007F0065
:103E600000007F0000000000000000020408102095
:103E700040201008040200000000003C424246407E
:103E800020101000181800000000001C225A555580
:103E900055552D42221C000000000008081814147B
:103EA000243C224242E700000000001F2222221E82
:103EB00022424242221F00000000007C42420101D7
:103EC00001010142221C00000000001F2242424268
:103ED00042424242221F00000000003F4212121ED6
:103EE00012120242423F00000000003F4212121E26
:103EF00012120202020700000000003C222201010F
:103F000001712122221C0000000000E742424242CF
:103F10007E42424242E700000000003E08080808D6
:103F200008080808083E00000000007C101010106F
:103F3000101010101010110F0000007722120A0E3E
:103F40000A12122222770000000000070202020279
:103F500002020202427F0000000000773636363649
:103F60002A2A2A2A2A6B0000000000E346464A4A11
:103F700052525262624700000000001C224141413F
:103F800041414141221C00000000003F42424242A8
:103F90003E020202020700000000001C22414141D3
:103FA00041414D53321C60000000003F4242423EFE
:103FB0001212222242C700000000007C424202048A
:103FC00018204042423E00000000007F49080808D7
:103FD00008080808081C0000000000E742424242AE
:103FE00042424242423C0000000000E7424222249A
:103FF00024141418080800000000006B49494949BE
:104000005555362222220000000000E742242418E1
:104010001818242442E7000000000077222214141C
:1040200008080808081C00000000007E212010106D
:1040300008040442423F0000007808080808080805
:1040400008080808080878000000020204040808AC
:104050000810102020204040001E101010101010DA
:104060001010101010101E00003844000000000056
:104070000000000000000000000000000000000040
:1040800000000000000000FF000608000000000023
:104090000000000000000000000000000000003CE4
:1040A0004278444242FC0000000000030202021A6F
:1040B00026424242261A000000000000000000389C
:1040C0004402020244380000000000604040407892
:1040D0004442424264D80000000000000000003C5E
:1040E000427E0202423C0000000000F08808087E88
:1040F00008080808083E0000000000000000007CDE
:1041000022221C023C42423C000000030202023A0E
:104110004642424242E700000000000C0C00000E44
:1041200008080808083E0000000000303000003891
:10413000202020202020221E000000030202027204
:10414000120A1612227700000000000E0808080864
:1041500008080808083E0000000000000000007F7A
:104160009292929292B70000000000000000003B83
:104170004642424242E70000000000000000003CCE
:1041800042424242423C0000000000000000001B8E
:1041900026424242221E0207000000000000007872
:1041A00044424242447840E00000000000000077B2
:1041B0004C040404041F0000000000000000007C08
:1041C00042023C40423E0000000000000008083E61
:1041D0000808080808300000000000000000006324
:1041E0004242424262DC000000000000000000E7A2
:1041F000422424140808000000000000000000EB26
:1042000049495555222200000000000000000076B8
:1042100024181818246E000000000000000000E7B9
:104220004224241418080807000000000000007E43
:1042300022100808447E000000C02020202020100A
:10424000202020202020C00010101010101010106E
:1042500010101010101010100006080808080810A0
:1042600008080808080806000C32C2000000000018
:104270000000000000000000084A284A0852085ABE
:104280004A628A62E8618A728649495A0852084A33
:1042900029528741CC6AC849AB628B5A284A695A6D
:1042A000695A0852495A495A2852E7496A5AE9490B
:1042B000C8390419252166296729672168294729F2
:1042C00047214621672967296621A731C839C831A6
:1042D000093AAC52AB528B526B4A29420942C83957
:1042E000C839A9398831A83109420942094209422D
:1042F0000A4A0A4A094A094209422A4A2A424A4AB9
:104300002A4A2A4A2A422A422A4A2A424A4A4A4AE5
:104310002A4A2A4AE941883188298829882968292E
:1043200089298929A929A931A931A9318931883156
:104330008931893188316B4AAC52BFF7FFFFFFFFEB
:10434000FFFFFFFFFFFFFFFFFFFFFFFFFFFFFFFF7D
:10435000FFFFFFFFFFFFFFFFFFFFFFFFFFFFFFFF6D
:10436000FFFFFFFFFFFFFFFFE74966398B6AAB7274
:10437000E859A74909722A82E859295A285229522C
:104380000952C8494A5A094A4A52C7418A5A2531EC
:104390006A5A085229526A5A485269526529252197
:1043A000E939E939A83167294721472147294729B0
:1043B0004721462167296729A829C831C831C83152
:1043C000E9398B4A8B526B4A09422A422A42E9391F
:1043D0002629262926292629A839E9410A420A4AF6
:1043E0000A4A0A4A0A4A094A094229422A4A2942E9
:1043F0004A4A2A4A2A422A424A4A2A4A4A4A4A4AAD
:104400002A4A2A4A4B4A4B4A093AA829A82988210C
:104410008821A829A829C931A93189318931A9312F
:10442000682989318931C9310619FFFFFFFFFFFF74
:10443000FFFFFFFFFFFFFFFFFFFFFFFFFFFFFFFF8C
:10444000FFFFFFFFFFFFFFFFFFFFFFFFFFFFFFFF7C
:10445000FFFFFFFFFFFFFFFFE749084A4A62AB7219
:104460008B726A62E9698C92085A295A495A295210
:1044700029522952CC6A295209526A5A6A5A8A62C6
:104480006A5AE8496A5A6A528A526521E729293AE2
:10449000093AC83187296721461947212721472929
:1044A000682967296729C939C931C931C939C93961
:1044B000C8392A424A4A2A422A420A422A42094220
:1044C0000942C939C839C839094209420A420A4A67
:1044D0000A4A0A4A0A4A0A4A0A4A0942E941A839E2
:1044E00009422A424A4A4A4A2A4A2A4A4A4A4A4ADD
:1044F0002A4A4A4A2A4A4A4A6B4A2A428829882929
:10450000A831A831C931A8318831883189310B42AD
:1045100089318931A931A931A8312D639ACEDFFFC4
:10452000FFFFFFFFFFFFFFFFFFFFFFFFFFFFFFFF9B
:10453000FFFFFFFFFFFFFFFFFFFFFFFFFFFFFFFF8B
:10454000FFFFFFFFFFFFFFFF284A284AE8496A6A8A
:10455000096A49626A6AEC82285A2852285229520A
:104560006A5A6A5AAB62495A8B626A622952495244
:10457000084A6A5A294A2A4AE939E8310932E931AE
:10458000A9318729872946216621462147212729E4
:1045900047298829A931A831A831C931E939093A0F
:1045A000E939E93909422A4A2A422A422A4A0A4270
:1045B0002A420A4209422A422A42E94109420A4A57
:1045C0000A4A0A4A0A4A0A4A0A4A2A4A2A4209421C
:1045D0002A4A0942E93909422A422A4A2A4A4A4AC7
:1045E0004A4A4A4A4A4A4B4A8B4A6B4AA939883155
:1045F000A8310A426B4A4B4A0A3AA83188298931C4
:104600008829A931A831C931A9314A42E83155A5D3
:10461000BEF7DFFFFFFFFFFFFFFFFFFFFFFFFFFF13
:10462000FFFFFFFFFFFFFFFFFFFFFFFFFFFFFFFF9A
:10463000FFFFFFFFFFFFFFFFE749E7412852496AFD
:104640006F9BA8694962285A295A495A495A6A5A95
:104650006A628A6208528B624A62EC72295A495233
:104660002952E841C841C9394729E939E931A8291E
:104670006829882967296721452166214729272933
:104680006829682988318831A8310A3A2B422A3AA8
:104690002A420A42E9410A4A0A4A2A4A2A4A4A4A14
:1046A0002A4A2A422A422A422A4A2A420A420A4AD2
:1046B0000A4A0A4A0A4A0A4A0A4A2A4A2A422A4A02
:1046C0002A4A2A4A2A422B4A0A422A422A4A2A4A81
:1046D0002A4A6B4A6B4A8B4A8C528C52C9398831B0
:1046E000EA416C4A4C4A6B4A6B4A6B4AE939893158
:1046F000882988316C4AEA39CA312A3A8B428B4A76
:10470000A6315DEFFFFFFFFFFFFFFFFFFFFFFFFF92
:10471000FFFFFFFFFFFFFFFFFFFFFFFFFFFFFFFFA9
:10472000FFFFFFFFFFFFDFFF8639294AC749CD8A18
:104730000E9B2FA3AB7A4962295AE8516A5A6962E3
:104740008A628A6208526A62295A095A08528A623F
:104750006A52E841A839A831C9390A3AC931A929A8
:10476000892968296829472946214721472147295E
:10477000672988298831682988292A3A0942E94124
:104780000942E941E9490A4A0A4A0A4A2A4A2A4A9E
:104790002A4A2A4A2A4A2A422A4A2A4A2A4A0A4AA1
:1047A0000A4A0A4A0A4A0A4A0A4A2A4A2A4A2A4A09
:1047B0002A4A2A4A2A4A2A4A0A42A831E9414A4A46
:1047C0006B4A6B4A8B4A6C4AEA39A931A931A93143
:1047D0000A426B4A6B4A6B4A6B4A6B4A6B4A4C4AB9
:1047E000C9398831A831A9310A3A0A424B424A42B2
:1047F00049420C5BD7B5FFFFFFFFFFFFFFFFFFFF45
:10480000FFFFFFFFFFFFFFFFFFFFDFFFDFFFDBDE3D
:10481000F4A4AF7B6E6B6F734952084AE8594F930B
:10482000ED92096AE8596A62295A6A6A495A8A62A3
:10483000AA6AAA6A495A69628B6A4A5A084AC841EE
:10484000C839C8396729E931EA39C931C931A931CB
:104850008929682147214721472147216721472985
:1048600068296829472947294721093A0942094AFD
:10487000094AE9490A4A0A4A0A4A0A4A2A4A2A4A7B
:104880002A4A2A4A29422A422A422A4A2A4A2A4AA1
:104890000A4A0A4A2A4A2A4A2A4A2A4A2A4A2A4AB8
:1048A0002A422A422A4A2A4A2A4A2A42C9394A4AD2
:1048B0004B4A6B4A6B4A8C52C9318931A931A931B3
:1048C000C9394B4A6B4A6B4A6B4A6B4A6B4A8C52EA
:1048D0008C520A420A42093A093A2A422A428B4A2F
:1048E0004A422942093A76AD7EEFDFFFDFFFDFFF64
:1048F000BFF7DBDE59CE56AD73947394CD62E941B8
:10490000EE62CE5AD27B306B4952084AEC726A6A28
:10491000C7498A5A6A5A495A49628A72295AAA6206
:10492000AA6289624852896249626A5A495245219B
:104930008729C831C9312A32E931C931A831C93191
:1049400088296721472127216729A83188296729D4
:1049500047294729472927210621093A0942094AB7
:10496000094AE949094A0A4A0A4A0A4AE9410942FE
:1049700029420942094209420A422A422A420A4A73
:104980000A4A0A4A294A294A294A2A4A2A4A2A52C2
:104990002A422A422A4A2A4A2A4A2A4AA8314A4A02
:1049A0004A4A6B4A4B4A8C52A93189318931A93123
:1049B000A931A931E9394B4A8B4A6B4A8B4AAC522F
:1049C0008B4A8B4A8F73E93929422A422A422A426A
:1049D0004A42E939093AC8310D6397B58F734B4A9A
:1049E000AD5A17A5B17B9494D9BD9DDE1EEFCE6262
:1049F0008D52CF5A5173927B495A294A084AE84945
:104A0000A7416952495A2962297A2DA3E861895A36
:104A10008A5AA749696A69722D8B6A62E8398629C0
:104A2000C8290A320A3209320932C831A82987292D
:104A3000672146218829C939E939C9318829672977
:104A40004729472927296731C8390942E941094AD5
:104A5000094A094A0A4A0A4A0A4AE941E949094A05
:104A6000094A094A094209420A420A420A4A0A4ACA
:104A70002A4A0A4A094A094A294A2A4A2A4A2A4AF9
:104A80002A422A422A4A4A4A4A4A2A4A4B4A6B4AF4
:104A90006B4A6B4A6B4A6C4AA931A931A9318931F9
:104AA000893189318931A9312A426B4A8B4A8B522B
:104AB0002E636B4A8C528B5229422A420942093A90
:104AC0002A42E939093AE939C839462112847594EC
:104AD0007694358C969438ADD283907B749C16ADC9
:104AE000EF62306B348C7173E749074AE7490C7BFE
:104AF000A759085A4862E8792DB32DBBC769896266
:104B000028526A728A8AAEB331BC2D7B6529083A75
:104B1000E829E9290932092AE92987298729A731BA
:104B2000C831E939E939C931A93167292621262156
:104B300046216729C939C939E941E841E941E941D3
:104B4000C839C841E941E941E941C841873946319D
:104B50000529052126298731C839C839A839C8410E
:104B6000094A094A094A294A094A29422A42294A3C
:104B70002A4A2A4A2A4A4A4A4A4A4A4A6B4A4B4AD3
:104B80006B4A6B4A2A42A9316829893189318931B6
:104B900089316931893189298831E9396B4AAB52C8
:104BA0008B4A8C52AC52AC52CC52C9392A424A4A36
:104BB000093AE939093AE9392A422A420A42D79C94
:104BC000D89CD79C18A5B27BAD5A3394F28B949C99
:104BD000B17B7173B69C516B0C8B07528A6AAB82A6
:104BE000CFB3EFBBCA9A2CCB2CC30CC3287A696213
:104BF000AB6AAA8A89A230CC92BC8639073A293A94
:104C0000E83109320932C829A8294621C831E939D1
:104C1000A831C931C931E939472147210519262170
:104C20002621A831A839E941C83987318739A839FF
:104C3000C839E941C839E941A839A839C841A7416B
:104C4000A741A839A739C841A739A639A739C8410A
:104C50006631663108420842294A294A2A424A4AAC
:104C600029422A4A2A4A4A4A2A422629E9394A4AEC
:104C70004A4A8B4A4B4268296829893189318931EE
:104C8000893189318931883188318829C8318B52FD
:104C90008C52AC528C52CC52CC52CC526B4A0A42FF
:104CA00009422A42E939093A2A420A3A2B42358412
:104CB00039A539AD71738D5AED623EEF5394BAC583
:104CC000917B9173D383558C8B922D8B6A6A6A7A10
:104CD0008AA2E9B22FDC689A267A689A8982AA6247
:104CE0008A5A6872AAA230CC6541483A083A6A42A8
:104CF000E831C929682167216721C931093AE939B1
:104D0000C839A831A8314729062126212621C518EE
:104D1000C83967292A4AED62EC62CB5A6A52E941E6
:104D2000A839C839C8398739873967318739873908
:104D3000A739C839E8390942E841E841A739C839F3
:104D4000A739A731A73987318731E8392A424A4A3A
:104D50002A4A2A4A4A4AC93968294729E9394A4A1E
:104D60004A4A4B4AC93968298931883189318931A0
:104D700089318931A9318931A931C831A831E9395D
:104D80004B4ACD52AC52CC5ACD5ACC5ACC5A8B52FB
:104D90002A422A42093AE9392A42093A0A3A506330
:104DA00019A597944D4A70739FF71DEFB5A4BEE601
:104DB000F383B37BD37BD37B0CA38EA3286A697266
:104DC0002CBB068ACECB94E5D4D5A992687A8A62A8
:104DD000CA5AA962EA92AA826531E7210832C92932
:104DE0008829682988298829EA390A3AE939C8319D
:104DF000A831A831462926212621E5182521094276
:104E00002D6BD07B4E6BCC5A6A4A09420842E83976
:104E1000C83909428B52EC624E6B6E736E6B4E6BEF
:104E20000C63AB52093A093A4A4AE9410942E9415D
:104E3000C839C839C839A731C839A7318729A83135
:104E4000E939A8316729872988296729A8312A4A99
:104E50002B4AE941883168298831A931A931A93122
:104E6000A931A931C931A931C831C939C9390A4271
:104E70002A428B4ACC5AED5AED62AC5ACC5AED62BA
:104E8000AC5A2942AB52093A093A4A422A422B42C9
:104E9000558C8F52AE5AAD5A9FF77394EE6ABBCDC4
:104EA000F48B5594558C147CECAA6DB36982886A96
:104EB00028926CC3CDCBB0DC36F66DBB8882086A15
:104EC000896AA95A896AA2202519092AE92988210B
:104ED00088296821C9312B422A420A42EA39A8317D
:104EE000C83146210519C410A410C831C310E418F4
:104EF000AF7BC8390942E839C839C839C839862969
:104F0000C831862966290942C839C831A7316621C6
:104F10000419E418E418E41846294A42AB526B4AD3
:104F2000A731262125212521041905190419051168
:104F3000E518262146216729682947296729672915
:104F40008829882968296829A831C931A831A83158
:104F5000A831C931C931C931C839E939093A2A42B8
:104F6000093A2A426A4A0D63ED620D6BEC620D6BE1
:104F70002E736B5209422A42C839093A2A3A0A3A30
:104F80008D526D4ACE5A5EEFBFFF76B579BD5EDEBB
:104F9000F8AC569439AD137C0CBB4CBB4DBB89921D
:104FA000AAAACDCB90EC4EDC4ED4B0E490D44D9B6D
:104FB000276AA972A639C310A7298729672168190A
:104FC0006821EA392A3A2A3A2A420A3A68292619ED
:104FD0002519051125190519A729E410E418C31886
:104FE0002521A73166292521E4188629A7316621C4
:104FF000E410E31004198629A731A731C731C7315E
:10500000E8318731662925212521C410A3102521E7
:1050100045216621E839093A462105190419E418A1
:105020000519E51805196629472967296829682996
:10503000682968296729C931E939E931C931C93194
:10504000E939E939E939E939093A093A093A0A42C3
:105050002A422A4209426B4AED5AEC620C630D6BFC
:105060000D6B2D6B6A4A6A4A093A4A426B4AAC5246
:105070006C4AAD528C52B8BD7EFF1294D7AC59BD6C
:10508000769C937B5594B273AAAA4CBB0BB32CBBF2
:1050900089AA0BBB0ECCB0DC2DD46BBBADC34FCCFF
:1050A0008CABEA7AE320E418451947216721A92946
:1050B0002A3A2A3A2A3A2A3A0A42EA392619051994
:1050C000051125194621C831C410E410C410C410BC
:1050D000C4100419C310E41825218629E83949426F
:1050E0004942694249426A424A426A4A49424942FD
:1050F000494229424A424A4A4942083AE839A731D4
:1051000045210419C4106729093AE939462925219E
:105110000519E51805190519051947216829682990
:10512000A931A9310A3AE931C931A829A831C931CF
:10513000C939C831C839E939E939093A093A093A66
:105140002A422A422A422A428B4A0C630C630C6B85
:105150000D6B2E6B0C6329426F6B4B428C4A6C4A71
:105160008C4AA931AC525EEF3AD60F73507B969CB5
:10517000927B727B5173716BCAB22CB3689A6CC309
:1051800068A22BC36BBBA79A0DD42EDC29AB269A41
:10519000ACBBA2208310051946192619C8310A3A5A
:1051A0002A3A2A3A2A3A2A3A2A3A2719051125117F
:1051B000862146210519C4108310C418C410A410F8
:1051C00082086100083A28424942494249426942FC
:1051D000694249426A428A424A4A6A4A694A694A73
:1051E000694A6A4A6A4A4A422942E731C731494212
:1051F0004A42293A2942E418A731A731E939A731AF
:105200002521E418E5182621E518061988292B42DE
:10521000EA39EA39C931C831A829E931C831C93177
:10522000C931C939C931A931C931C939E939E9396E
:105230002A422A424A424A422A42AB522D6B0D6B05
:105240000D6B0E6B0D6B0D6B29424A426B4A4B4244
:105250006B4A2B428F735EF77CE6749C78BDFBC56E
:105260001484516BEF62B68C2CBB699A8DBBA9AAD2
:105270000ABB88AA2BC36BCB09B34ABB2DD42AB374
:105280008982C4206729E410E410A829093A2A4237
:105290002A422A3A0A3A0A3A882906110511E410E4
:1052A0000511C410C410A418A41883106208A31018
:1052B000E8394842694A694269424842694269425A
:1052C000494269424A426A426A4A6A4A694A494AC2
:1052D000694A6A4A6A4A6A4A2942C731C731294239
:1052E00049426A4A6A4A49422842C73146216729E7
:1052F000A731A731252105210621061906214721BD
:10530000C939A931A931A829C931C931C931C9312E
:10531000C931C931C931C931C931C939C939E93985
:10532000E939C931C939E939E939C9398C520E6BC2
:105330000E6B0E6B0D6B2E6BAC5A4A4A6B4A8B4A46
:105340004B4A4B4A3284BCE678BD37B5917B306B13
:105350003063EF5A9273D3732CBB85818CBBCAAA7E
:10536000EAB288AA2BC36CCB6BC387A2ACCB2FBC91
:10537000C2288310C410E510A8290932093A2A422C
:105380002A3A2A3A0A3AC93106190519E410A4083A
:10539000A408C410A310A3186210C318E839494A1E
:1053A000494A694A694A694A694A694A694A894A65
:1053B000694249428A4A6A4A6A4A6A4A694A494A81
:1053C000494A6A4A6A4A6A4A083AC731C731294291
:1053D0004A4A6A4A6A4A694A6942694AE839A731C7
:1053E00025216621093A8829462106212621062100
:1053F000E5184729A831C931A929C931C931C931AD
:10540000C931C931C931A931A931A931A8316829B6
:10541000883188318831883188318829C9398C525E
:10542000ED622E732E730D6B0D636B524B4A4B4A1C
:105430006B4A2A4A2A4A5394749C749C8D528E5209
:105440004C426D4AEF62CF5A2CBB489ACECB0BBB75
:1054500048A2AEDB2BC3ACDBECD3C8AAA9AAC659C1
:1054600002114208E5108729E931093A093A2A422E
:105470002A420A3AE93126190519E510C410C41068
:10548000C410A410A31082100421494A484A694A52
:10549000484A48424842684A684A684A684A694AEB
:1054A000694A49426A4A6A4A6A4A6A4A6A4A6A4A86
:1054B0006A4A6B4A6A4A8B4AC831C831A8314A4A9B
:1054C0004A4A4A4A6A4A4942694A494A494A252156
:1054D0006A42A731E41867298729672926212621EE
:1054E0002621262126198829A829A929C931C931A7
:1054F000C931C931A931C931A93189318931A829C5
:1055000088298829872987298831A8318831C93194
:10551000AB52ED624E6B2E6B2E6B0D632A424A42EC
:105520006B4AE9396B4A2A421284B17B2F63CF5A06
:10553000CE523063EF5A105B2CBB27922FD489A236
:105540004CC3CABA2BC34BD3CDD38CCBEB9A042913
:10555000C308A4088721C831C831E9392A3A872904
:1055600026214721261906190519C410E518C4106B
:10557000E4108208821045292842494A494A694A6A
:10558000494A484248426942694A694A6942694A05
:10559000694A694A6A4A6B4A6A4A6A4A6A4A6A4A6C
:1055A0006A4A6A4A6A4A6A4AE839C831C731494A86
:1055B000494A4A4A494A694A4942494A494AC731D5
:1055C0002942083A4A42C831E5180519872966294F
:1055D00026212621462126194621A929C931C9316A
:1055E000C931A929C931C931A931C931C931C93133
:1055F000A931A831A831A83188318831682988318A
:10560000C9398B52CC5A2E6B2E6B2E636B524A4A81
:105610002A422A3A2A3AE9312E632F6B2F63516BC3
:10562000716BF37BB273F37BAAA2AEC3B1E4CDCBB3
:105630004BC30AC3EBC22BCBCCDBEDD3C761A308B2
:10564000A408E518C829C831E831093AA82926195B
:105650002619261926190619E410A410C418A31037
:10566000A310A3104521694A894A28422842484A82
:10567000484A484248424942694269426942694A45
:10568000694A694A6A4A6A4A6A4A6A4A6A4A6A4A7C
:105690004A4A694A694A2942C831C831C731494A28
:1056A000494A494A494A4842694A694A494269421B
:1056B0002842083A29422942E8394621C41066297D
:1056C0006629462146214621462126198829C929CD
:1056D000A929E931C931C931A931C931C931C93122
:1056E000C931C931C931C931A931A93188318931AB
:1056F0008831ED620E63AD620E6B2E6BED624A4A2D
:105700002A42093A8B424A3A2A3A328CF17BB07BE0
:105710009073B073B073F17BEBAA71DCF3ECD2EC55
:1057200089AA0BBBEBCA4AD36AD3CCC3C328C41023
:105730008308E5188729E931093AA8292519261986
:105740000511261906114619C410A310C318A31079
:10575000A3100419694A2842484AE73928424942B5
:1057600048422842494249426942694A694A694A6B
:10577000694A694A694A6A4A6A4A49424942694ADF
:105780006A4A694A694AE839A731A731C7314942AB
:10579000494A694A694A2842694A694A6A4A6942E1
:1057A000E731283A093A093A2A426A4AA731C4102D
:1057B000C410462167294621261967212619A829E0
:1057C000C931E931C931CA31C931C929C931C931F0
:1057D000C931C931C931C931A931C931A931A93159
:1057E000A831E9398C52CD5AED62ED624F6B6B4AAC
:1057F0004A422A42AB4A6A428A4A1CE7FFFFFFFF3D
:10580000FFFFDEFFFFFFFFFF899A71D4F3EC51DC4D
:10581000EBBA2CC3CACA2BD34CCB4882C420A410E9
:10582000E5102619051946214621461905190519BD
:105830002619061926190611C410C410A318C31876
:10584000A310083A494A684AC6394842694249425F
:1058500049426942494249424942494A494A4942C0
:10586000694269424942694A48424942694A694A29
:10587000694A694A4942C839A731C831C7314942E2
:1058800049426942E73148424942494269426A4ACB
:105890002942293A6B4AE83929422A424A42294296
:1058A0006629A31067214A426721472167214721C2
:1058B0008829C931C931C931C931E931C931C93141
:1058C000C931C931C931C931C931C931A931A92950
:1058D000A82987296B42AC5AAC5A0D630E63ED5A66
:1058E0002A422A3A093A093AE939B7B5FFFFFFFFD8
:1058F000FFFFFFFFFFFFFFFFC6812CA30FCC4CC3B0
:105900000BC32BBB2BCB0BD32CABC330C418E51074
:10591000261906190619261106110619061906195F
:10592000E51806192621C410C310C310C310C310F4
:105930004942494249422842E7394842694249427C
:105940004942694A694A694A484A484A4942494A71
:10595000494A494A694A694A2742684A6842894A23
:10596000694A48424942A731A731A731C731494264
:105970004942694AE7396942494A494A6942494ABA
:10598000C73129422942C7316A4A49424A424A42FA
:105990004A428729E41826212942672946214621BF
:1059A00047218829C931E931C929C929A931A93132
:1059B000C931CA31CA31CA31C931E931C929C931FC
:1059C000C931A831C9398C528C52CC5AED620D5B69
:1059D0006B4A0A420A3A0A3A093AB7B5FFFFFFFF93
:1059E000FFFFFFFFFFFFFFFF899A2CABE7892CBB6E
:1059F0002CCB2BCB0BD30BCB6561E428E518061918
:105A00000619051926190611061906190621062177
:105A1000061906214621C410A310A310C310452166
:105A20006A4A29422842894A28424942694A4942E7
:105A30004942684A694A694A694A494A4942494A5F
:105A4000494A494A694A494248424842894A684261
:105A5000694A68424942C731C731C731E8396942AA
:105A6000694A6942C73907422852494A894A694AFC
:105A700066294942A731083A293A49424A424A42EC
:105A80002A422A424A42E41825218B4AA83167213A
:105A9000672167216721A829EA31CA31CA31C93192
:105AA000C931A931CA31C931A931C931C931C93165
:105AB000C931C9318829ED5AAC5AAC5ACC5AED5A81
:105AC0008B522A42E939093A093ABBD6DFF7FEFF81
:105AD000FFFFFFFFFFFFFFFF2CB30BAB4CBB2CC343
